:020000040800F2
:1000000070070020A5010008D52B00080D28000866
:10001000112B00080D1B00084931000800000000EA
:10002000000000000000000000000000D92B0008C4
:100030000F1B000800000000D72B0008DB2B000876
:10004000BF010008BF010008BF010008BF01000890
:10005000BF010008BF010008BF010008BF01000880
:10006000BF010008BF010008BF010008BF01000870
:10007000BF010008BF010008BF010008BF01000860
:10008000BF010008BF010008BF010008BF01000850
:10009000BF010008BF010008BF010008BF01000840
:1000A000BF010008BF010008BF010008BF01000830
:1000B000BF010008BF010008BF010008BF01000820
:1000C000BF010008BF010008BF010008BF01000810
:1000D000BF010008712E0008BF010008BF01000821
:1000E000BF010008BF010008BF01000800F002F8CE
:1000F00000F048F80AA090E8000C82448344AAF17A
:100100000107DA4501D100F03DF8AFF2090EBAE877
:100110000F0013F0010F18BFFB1A43F0010318473B
:10012000003C0000203C0000103A24BF78C878C191
:10013000FAD8520724BF30C830C144BF04680C60ED
:10014000704700000023002400250026103A28BF35
:1001500078C1FBD8520728BF30C148BF0B60704739
:100160001FB500F00FFB04000020002103F0AEFAE1
:10017000401C60600020002103F092FAE0601FBD87
:1001800010B510BD00F03CFD1146FFF7E9FF03F08C
:100190001BFA00F095FF03B4FFF7F2FF03BC00F079
:1001A000F7FF00000948804709480047FEE7FEE7DF
:1001B000FEE7FEE7FEE7FEE7FEE7FEE7FEE7FEE717
:1001C00004480549054A064B70470000472C0008C3
:1001D000ED0000087001002070070020700300206F
:1001E000700300200FB400B58DB010A909900091E4
:1001F0000B904FF0FF300A9000200C900648784496
:100200000690064878446A4607900F9909A800F0BE
:1002100089FA0DB05DF814FB430500005B05000092
:100220004FF0000200B5134694469646203922BF8F
:10023000A0E80C50A0E80C50B1F12001BFF4F7AFDA
:10024000090728BFA0E80C5048BF0CC05DF804EBBC
:10025000890028BF40F8042B08BF704748BF20F82A
:10026000022B11F0804F18BF00F8012B7047704728
:10027000704770472DE9FF4F064689B00878FF2880
:1002800006D0491C2D2805D000244FF0000908E0B5
:1002900000200CE00124F8E709EB8903491C00EB7E
:1002A00043090878FF28F7D114B1C9F1000081464D
:1002B000107800252C46AA4629462D2801D02B2847
:1002C00004D1521C2D2813D0002082468B46107872
:1002D000FF280FD04FF0000C0A21521CA5FB01781B
:1002E00004FB018105FB0C11C5194BEB0104EEE782
:1002F0000120EAE7002108464FF00000BAF1000FA4
:1003000002D000EB80004008C0F38158B8F1010F23
:1003100001DD4FF0FF380C9809EB000755EA0400A7
:1003200009D04FF0020917F5FA7F0BDA4FEACA70CD
:10033000C6E900B012E04FEACA70C6E900B00DB0DD
:10034000BDE8F08FB7F5FA7F0DDDF0487844D0E9CD
:100350000010C6E9001040EACA70706000F016FA9A
:10036000C0F80090EBE7391E02DAC8F1000200E0A5
:10037000424600DA794206A800F0D0FB06AB93E8CB
:10038000070003AB83E8070044F23E005BEA040188
:100390000090584604D144F21E012C465D4600915F
:1003A000210C0904014306D10099240444EA1544B0
:1003B0002D041039009104F07F41014306D10099CA
:1003C000240244EA15642D020839009104F07041BA
:1003D000014306D10099240144EA15742D01091F37
:1003E000009104F04041014306D10099A40044EA81
:1003F0009574AD00891E009104F00041084304D1BA
:1004000000986D196441401E009042466846002FD6
:10041000CDE9014503A902DD01F027F901E001F072
:10042000FCF8BAF1000F04460D4601D084F00044F8
:1004300040F2FF7724F00040284303D0C4F30A5071
:10044000B84212D100F0A2F9C0F80090C4F30A50EB
:10045000B8420AD1AE487844D0E90010C6E900108D
:1004600004F000410843706069E7C6E9005466E79C
:100470002DE9FF4F1F464FF0000A4FF0FF38454669
:1004800091B0D7E90146CDF83CA000F07BF9C068F7
:100490000168405C1090B96912986D1C8847396AF0
:1004A000814688470028F6D1B9F1FF3F0AD0002ED7
:1004B00024F4D06411DDB9F12B0F08D0B9F12D0F60
:1004C0000BD102E0404615B03AE744F48064B969C4
:1004D00012986D1C8847761E8146600504A901D5D7
:1004E0002D2000E02B20002E01F1010B0DF1300832
:1004F0008DF810003FDDB9F1690F08D0B9F1490F4F
:1005000005D0B9F16E0F02D0B9F14E0F1CD13B46A8
:1005100001A8009580E85002DDE912126FF0020098
:1005200003F085FBC11CCED10EE0B96912986D1C99
:10053000884781461398761E44F4007405600F982E
:10054000401C002E0F9016DDB9F1300FEDD0B9F13F
:10055000780F02D0B9F1580F0DD10F9801280AD1A8
:100560003B46CDE90054DDE91212001F029603F06C
:100570005CFBC11CA7D1109989453ED144F0800491
:1005800006E01399681CAAF1010A44F4007408609B
:10059000B9696D1C1298761E884730288146F0D0C4
:1005A0002BE01099894505D1200603D4761E44F02E
:1005B000800418E0484602F06AFF08B3761E0DF189
:1005C00023018B4544F4007408D2A9F130000BF8E4
:1005D000010B200607D5AAF1010003E0200602D492
:1005E0000AF101008246A00502D51399681C086033
:1005F000B96912986D1C88478146002ED1DC53E002
:10060000002E51DDB9F1650F02D0B9F1450F4BD184
:10061000A00549D5B9696D1C1298761E24F4407462
:100620008847002E81460CDD2B2804D0B9F12D0F10
:1006300007D144F48074B96912986D1C8847761EFE
:100640008146E00501D52D2100E02B2108F8011B92
:10065000CDF8008021E0761E0DF13901884544F483
:1006600000740CD2A9F1300010F0FF0088F80000EF
:1006700002D10099884509D908F1010806E0E00592
:1006800001D5244801E042F20F708246B969129800
:100690006D1C8847814613980560002E04DD48468E
:1006A00002F0F5FE0028D6D1F96912988847FF209C
:1006B00053468BF8000088F8000000200A900B9049
:1006C00004AA0CA90AA8FFF7D5FDA00502D46FF073
:1006D0000100F8E614F0240F0AD0E00714D13868BE
:1006E000DDE90A12031D3B600068C0E900120BE05F
:1006F0000AA9684602F074FEE00705D13868009A3E
:10070000011D3960006802602846DCE6F03900000F
:10071000E6380000F1D8FFFF026811441378016049
:1007200018467047D16005497944516104497944BC
:10073000116200211161114600F036B8EDFFFFFF94
:1007400063000000426842B1016811F8013B23B127
:10075000521EC0E90012184670470121C160881E70
:10076000704742685AB1C368016843B983688B42D5
:1007700005D0491E521CC0E90012002070474FF0FE
:10078000FF307047004870472C0100200048704738
:100790000C01002010B5044600F058FA0068005D16
:1007A00000F0010010BD00002DE9F34F4FF0000AEA
:1007B0000C4656468DB001200C9001F10C000B90B8
:1007C00062690B980121904705002DD0252D2CD072
:1007D000216A8847C0B162690B9801219047216A5C
:1007E00088470028F7D16269411E0B98904700E0C6
:1007F000761CA1690D988847216A88470028F7D19F
:10080000E1690D988847DBE7A1690D988847A84200
:10081000074601D1761CD3E7E1690D9888477F1C14
:1008200002D1BAF1000F6FD06BE162690B9800271B
:100830003D46394690472A2804D162690B98012128
:1008400090470125DFF8D08262690B98012190471B
:10085000A0F130010A290AD24745E5DC07EB870100
:1008600000EB4107303FDFD445F01005ECE7E90627
:1008700001D46FF000476C280AD04C2814D06828A7
:1008800015D06A280DD074281CD07A281AD01DE003
:1008900062690B98012190476C2802D045F004054D
:1008A00014E045F002050DE045F020050AE062691C
:1008B0000B9801219047682802D045F0080505E013
:1008C00045F4006562690B9801219047C4E901571E
:1008D00065283DD019DC58287AD00CDC452837D063
:1008E00004DC252826D041289ED131E046282FD08F
:1008F000472899D12CE05B2877D0612828D063283D
:100900007CD0642823D15AE0F6E06F2848D008DC78
:1009100066281DD067281BD0692821D06E2816D1E3
:1009200027E0702845D0732868D0752847D07828EC
:100930000DD14DE0A1690D988847252805463FF463
:1009400069AFE1690D9888476D1C3FF46AAFD8E044
:100950000D9923466A466FF0010003F064F9C5E083
:1009600045F0400023464FF000026060A80736D4EF
:100970003EE0E8077FF447AF2068011D2160006872
:10098000290501D506701BE7290701D5068017E761
:10099000A90703D5F117C0E9006111E706600FE769
:1009A00045F0400023464FF008026060A80716D4C7
:1009B0001EE040F60E0125EA0100606016E045F0F9
:1009C000400023464FF00A026060A80707D40FE0FA
:1009D00045F040006060A80708D5234610220D9915
:1009E0006FF00100AFF3008080E007E010222346A3
:1009F0000D996FF00100AFF3008077E04FF0000930
:100A000063284F46C8464B46CB4602D05B2806D0EB
:100A100038E0E80601D40120A060012732E06269D5
:100A2000D4F80CB00B98012190475E2807D14FF005
:100A3000010949466269D4F80CB00B9890472169C6
:100A400039B900210A4603AB43F82120491C082983
:100A5000FADBD8B3216949B308F1010862690B9840
:100A6000012190475D28F4D1B9F1000F09D0002091
:100A700003A951F82020D24341F82020401C082827
:100A8000F7DB03AB2069002820794FEA40701ED0C5
:100A90005B462246CDF80080CDE901970D990028EC
:100AA0006FF0010020DAAFF300801FE0C11703AA46
:100AB00000EBD1614B1121F01F0102EB8302411ABF
:100AC00013680120884003431360C7E719E00D99BC
:100AD000224600286FF00100009702DAAFF3008091
:100AE00004E0AFF3008001E0AFF3008000280ADAF1
:100AF000401C06D10C9820B14FF0FF300FB0BDE87C
:100B0000F08F5046FAE7E90701D10AF1010A0644DD
:100B100000200C9054E60000CCCCCC0C2DE9F04722
:100B2000814616468AB0334878440DC88DE80D00DA
:100B300030487844801C03AC0DC884E80D0041F6B1
:100B40009B300844372190FBF1F290FBF1F5A5F1C1
:100B5000800501FB12041B3C02D56442012000E029
:100B60000020DFF890A080460027FA44AAF1BE0AD0
:100B70000DE0E00709D03246684607EB47010AEB73
:100B8000810100F05EFD8DE8070064107F1C002CE1
:100B9000EFD1184F7F44AC3F18E0E80714D007EBC3
:100BA00004100DF1180A90E80E008AE80E00C068E3
:100BB000F04201D198190890324606A903A800F026
:100BC00040FD03AB83E807006D10641C002DE4D1E9
:100BD00032466946B8F1000F03A802D000F009FDC3
:100BE00001E000F02EFDC9E90001C9F808200AB0B3
:100BF000BDE8F087DC310000004870470C010020A0
:100C00007546FFF7F9FFAE4605006946534620F0EA
:100C10000700854618B020B5FFF7D2FABDE820409E
:100C20004FF000064FF000074FF000084FF0000BA8
:100C300021F00701AC46ACE8C009ACE8C009ACE85B
:100C4000C009ACE8C0098D467047000010B5FFF739
:100C500099FD001D10BD00BF752A000010B5FFF7FB
:100C600095FD006810BD10B50446FFF78FFD0460C8
:100C700010BD00002DE9FF4F1F464FF03C0987B023
:100C80004FF00042DDE9141001F10108DDF858A031
:100C900002EA405003900020049083460546044633
:100CA0000590B969461E08988847AAF1010A029082
:100CB000BAF1000F37DD02982E2815D0102100F070
:100CC00058FA00282ADB4FF0010B0499014316D093
:100CD000B9F1000F0BDB4A46C11700F037FA0543A4
:100CE0000C43A9F1040905E00120059007E008B1D3
:100CF00045F0010501200490059800B9361DB96939
:100D0000089808F101088847BBF1000FAAF1010A11
:100D10000290CDD00999C1F80080C9E702987028E7
:100D200008D0502806D0F96908988847BBF1000F11
:100D300014D04FE0002002900120BBF1000F04907E
:100D400009D0B969089808F101088847AAF1010992
:100D5000B9F1000F07DCF969089888476FF00100C6
:100D60000BB0BDE8F08F2B2804D02D280CD14FF00C
:100D7000FF300490B969089808F101088847A9F183
:100D80000109B9F1000FE6DD411CE4D00A2100F0B1
:100D9000F0F90028DFDB029908F1010801EB81017D
:100DA00000EB41000290B969089888470A2100F0D9
:100DB000E0F9099AA9F10109B9F1000FC2F8008020
:100DC00001DD0028E7DAF969089888470499029854
:100DD00000FB016655EA040004D004F0404109001C
:100DE00002D006E0039898E0A40044EA9574AD00B0
:100DF000B61E04F00041080002D16D196441761E50
:100E0000159810F0240F03D04FF00B095C4803E055
:100E10004FF028096FF07D008246564507DAAAEBAD
:100E200006018944B9F1410F01DD4FF0410901206C
:100E30000021A9F1010200F089F9024628400B4681
:100E40002140084301D0012100E00021501E029101
:100E500043F1FF3128402140084301D0012000E048
:100E600000200299834651EA0B014FD00021084629
:100E70004FF00000039900F4400039B100EB80000E
:100E80004FF4400100EBD07001EA600080150128AA
:100E900002DD4FF0FF3000E013D0401C36D0029846
:100EA00060B3BBF1000F0CD14A460120002100F0D5
:100EB0004DF928402140084301D0012000E00020E6
:100EC000E0B101204A46002100F040F903464019F4
:100ED0000A4661412D1A8C4111D3B9F1400F09DD49
:100EE000159810F0240F02D0AAF1340603E0AAF1FD
:100EF000170600E0761C00254FF0004406E05B1E5C
:100F000042F1FF3220EA030521EA0204CAF101009E
:100F1000B04206DA1B490398084301900020009074
:100F20000EE0039AC4F3D321E80A0A43164940EAC3
:100F300044500A433146CDE90002684602F09CFA6B
:100F4000159810F0240F0BD01598C00715D13868EC
:100F5000DDE90012031D3B600068C0E900120CE0EF
:100F600002A8694602F03CFA1598C00705D1386816
:100F7000029A011D3960006802604046F0E60000F8
:100F800002FCFFFF0000F07F0000F03F2DE9FF4F63
:100F900092461D4685B04FF00041DDE9124BDDE978
:100FA00014727F1E01EA4B50414940F0FF4940EA6C
:100FB0000108002122F020004928049102D04E2887
:100FC00028D04CE03BA0012607C88DE80700A9699E
:100FD0000698641C88477F1E014606D41DF806004B
:100FE00018B121F0200181420BD0E96906988847A9
:100FF000032E34D0082E32D06FF0010009B0BDE8C6
:10100000F08F761C032E01D0082EE0D1601CCAF8A8
:101010000000DCE7A9690698641C88477F1E2AD473
:1010200020F02000412826D1A9690698641C884731
:101030007F1E20D420F020004E281CD1A9690698DC
:10104000641C88477F1E48F4002849F48009CAF8C8
:10105000004001D4282806D0E969069888475FEA4D
:10106000CB7012D022E0A9690698641C88477F1EC5
:1010700001D4002803DAE96906988847BCE72928E3
:10108000F1D1641CCAF80040E9E71BF0240F07D037
:1010900028680499031D2B600068C0E9001805E06A
:1010A0002868021D2A600068C0F800902046A5E765
:1010B0000000F07F494E46494E4954590000000057
:1010C0000446AFF300802046FFF765F84FF0013C7F
:1010D00050F8042B51F8043B9A4221D1A2EB0C03A7
:1010E000934313EACC1317D150F8042B51F8043B67
:1010F0009A4215D1A2EB0C03934313EACC130BD104
:1011000050F8042B51F8043B9A4209D1A2EB0C038E
:10111000934313EACC13DBD04FF00000704700BFBD
:10112000D01A01BAB1FA81F101F0180122FA01F0E6
:10113000CB40C1F12001DBB2C0B2C01A2CFA01F3DE
:10114000D11A914311EAC311E6D17047B2F12003DD
:101150000AD5C2F1200301FA02F120FA03F300FAE2
:1011600002F041EA0301704700FA03F14FF000007A
:1011700070473A2800D2303820F02002412A01D3AB
:10118000A2F13700884201D34FF0FF3070470000D2
:1011900001491820ABBEFEE726000200704720F090
:1011A0007F4C80EA030023F07F47ACEB070303F595
:1011B0007C5300F0004003F1FF032DE980494FEA22
:1011C000154B09B44FEA144325EA0B4E24EA0348B1
:1011D0000FF2042606EB132749083E785FEA320235
:1011E00003FB0667C7F5000707FB06F64FEA54370F
:1011F0004FEAD64606F1020607FB066CCCF1005C0E
:101200004FEA1C472CEA074C07FB06F40CFB06F5DB
:1012100004EB15464FEA961634BF00204FF000400D
:101220004FEAD13706FB07FC4FEA1C4C0CFB0BF7CF
:10123000D21B03FB0CF761EB07010CFB0EF7B0EBC5
:10124000074072EB17420CFB08F734BFA2EB0742D2
:10125000B2EB074261EB17414FEA0C444FEA9107AA
:1012600006FB07FC4FEA1C4C0CFB0BF7B0EBC7402E
:1012700072EB573203FB0CF734BFA2EBC742B2EB61
:10128000C74261EB57310CFB0EF7B0EBC70072EBB6
:1012900057720CFB08F734BFA2EBC702B2EBC702D0
:1012A00061EB5771039F4FEA816141EA921104EBB0
:1012B000CC044FEAD1374FEA826206FB07FC42EAD0
:1012C00090124FEA80604FEA1C4C0CFB0BF7D21BCC
:1012D00003FB0CF761EB07010CFB0EF7B0EB0740CB
:1012E00072EB17420CFB08F734BFA2EB0742B2EBDC
:1012F000074261EB17414FEA8C554FEA910704EB27
:101300009C2406FB07FC4FEA1C4C0CFB0BF7B0EBD4
:10131000C74072EB573203FB0CF734BFA2EBC74256
:10132000B2EBC74261EB57310CFB0EF7B0EBC700D5
:1013300072EB57720CFB08F734BFA2EBC702B2EB9B
:10134000C70261EB577115EB4C254FEA816141EA09
:1013500092114FEA82624FEAD13742EA901206FBBD
:1013600007FC44F100044FEA80604FEA1C4C0CFB80
:101370000BF7D21B03FB0CF761EB07010CFB0EF71D
:10138000B0EB074072EB17420CFB08F734BFA2EB3F
:101390000742B2EB074261EB174115EB1C154FEA10
:1013A000813141EA92414FEA823242EA90424FEA69
:1013B00080304FEA0C7644F1000448EA03434EEAD9
:1013C0000B484FF0000EB2EB080C71EB030724BF83
:1013D000624639464EEB0E0E4FF0000B001852419C
:1013E00049414BEB0B0BB2EB080C71EB03077BF1A4
:1013F000000B24BF624639464EEB0E0E4FF0000B39
:101400000018524149414BEB0B0BB2EB080C71EB4E
:1014100003077BF1000B24BF624639464EEB0E0EEC
:1014200051EA020718BF46F0010616EB0E7655F199
:10143000000254F1000103D5BDE88901BDE8008830
:10144000BDE88901BDE80048B619524141EB0101F0
:10145000A3F10103704780807F7E7D7C7B7A797861
:10146000777676757473727171706F6E6E6D6C6C69
:101470006B6A6A696868676666656464636362610B
:101480006160605F5F5E5E5D5D5C5C5B5B5A5A598C
:1014900059585857575656555555545453535252F8
:1014A0005251515050504F4F4F4E4E4D4D4D4C4C50
:1014B0004C4B4B4B4A4A4A49494948484847474799
:1014C00047464646454545444444444343434342D6
:1014D000424242414141000046EA0646A3F57053AC
:1014E0004FEA164646EA42564FEAD22242EA4152B3
:1014F00010B54FEAD121A3F1010300F017F820F055
:10150000004000F1010C00F0004701EB00501146D3
:10151000BCF5006F40EA070000D210BD02484FF052
:10152000000140EA070010BD0000F07F002B26D428
:10153000770021D01CB54FEA370703B44FF01000F5
:101540004FF010014FF000000FBCBDE810400BF150
:10155000010BBBF1010F08BF5FEA170722BF12F1B1
:10156000010211F101014FF0004143F1000300F0CD
:10157000004043EA00007047F9D35708DAE746EA2B
:10158000064613F1400F4FEA16461FDD13F1200FF8
:10159000DFBF16430A46002120335B42C8D0C3F1A7
:1015A000200746EA064602FA07F74FEA164646EAD9
:1015B0000706C3F1200722FA03F201FA07F721FA1E
:1015C00003F14FF0000342EA0702B1E746EA0206E0
:1015D00046EA06464FEA164646EA0106BCBF46EA18
:1015E0000646360C4FF000034FF000024FF00001AA
:1015F0009EE72DE9C048934630B491E8380007C80B
:1016000031EA400C48BF34EA430C03D5FFF7C7FD6D
:10161000FFF78CFFF0BCBDE800882DE9C048934679
:1016200030B491E8380007C831EA400C48BF34EACA
:10163000430C03D5FFF7B3FDFFF74EFFF0BCBDE849
:1016400000882DE9C048934630B491E8380007C8B7
:1016500010F0804F08BF13F0804F03D100F019F84D
:10166000FFF764FFF0BCBDE800882DE9C048934651
:1016700030B491E8380007C810F0804F08BF13F06D
:10168000804F03D100F005F8FFF726FFF0BCBDE85E
:10169000008820F07F4780EA030023F07F4C07EBAF
:1016A0000C03A3F57C5300F00040A3F1FE0392F07D
:1016B000000F00F0B38095F0000F00F077802DE967
:1016C00001494FEA11404FEA144621EA004800FB65
:1016D00006FC24EA064708FB06F607FB08F800FBB1
:1016E00007F718EB06484CEB164C4FEA124B18EB79
:1016F00007484FEA15464CEB174022EA0B4E0BFB0E
:1017000006FC25EA06470EFB06F607FB0EFE0BFB62
:1017100007F71EEB064E4CEB164C4FF000061EEB87
:10172000074E4CEB174B18EB0B0840F1000018EB81
:101730000E0B58EB000840F100008F1A4FF000012B
:101740003CBFC943661B14BFB5EB040C00213CBF72
:10175000C943F61B4FEA17444EEA8E0E27EA0445AA
:101760004FEA1C4704FB07622CEA074C05FB07F70E
:101770000CFB05F604FB0CFC16EB074642EB17428C
:1017800016EB0C4642EB1C421BEB060658EB020222
:10179000414146EA9E0601D5BDE80189B61952418C
:1017A00041EB0101A3F10103BDE801894FEA1445B2
:1017B0004FEA114724EA054621EA074C05FB07F4E6
:1017C00006FB07F70CFB06F105FB0CFC11EB0741D0
:1017D00044EB17444FEA124711EB0C4144EB1C4415
:1017E00022EA074C05FB07F206FB07F70CFB06F69F
:1017F00005FB0CFC16EB074642EB174216EB0C46BA
:1018000042EB1C456A1854F1000148BF7047B619F5
:10181000524141EB0101A3F10103704795F0000F24
:1018200037D04FEA11424FEA144721EA024624EA30
:10183000074C02FB07F106FB07F70CFB06F402FB63
:101840000CFC14EB074441EB17414FEA154714EB2E
:101850000C4441EB1C4125EA074C02FB07F506FB53
:1018600007F70CFB06F602FB0CFC16EB074645EBF4
:10187000174516EB0C4645EB1C42121951F10001BD
:1018800048BF7047B619524141EB0101A3F1010372
:1018900070474FEA14454FEA114724EA054621EA0A
:1018A000074C05FB07F106FB07F70CFB06F24FF0B0
:1018B000000605FB0CFC12EB074241EB174112EB53
:1018C0000C4251EB1C4148BF7047921841EB01019B
:1018D000A3F101037047000010B50B4C00224FF438
:1018E0000061204600F092FA00222115204600F007
:1018F0008DFA4FF4045000F057F8BDE8104042F262
:10190000380000F051B80000000C014070B5104CD8
:1019100006460122D103204600F078FA0122910305
:10192000204600F073FA012215032946204600F0F4
:101930006DFA01222946204600F068FA0022294665
:10194000204600F063FA3046BDE8704000F02CB845
:10195000000C014010B50446084601F07CFF104A17
:10196000104B01F0C7FF01F049FF810B7CB120F45F
:10197000804021F4804140F4004041F4004400BF25
:1019800000F012F82046BDE8104000F00DB820F439
:10199000004021F4004140F4804041F48044EFE7EE
:1019A000F8BA40D813A20C402DE9F04701221A4D95
:1019B0000646970300243946284600F027FA4FF4DC
:1019C000004900224946284600F020FA4FF400580A
:1019D000300401D5012200E000224146284600F0F3
:1019E00015FA00223946284600F010FA7600012246
:1019F0003946284600F00AFA641CE4B2102CE7D3FA
:101A000001224146284600F001FA49462846BDE831
:101A1000F047012200F0FAB9000C014070B50E4603
:101A200081B21C461546002001F0FCFBB1B201203A
:101A300001F0F8FBA9B2022001F0F4FBA1B20320EF
:101A400001F0F0FBBDE8704001230221014A084685
:101A500001F07CBB3000002070B50C4601461D46ED
:101A60001646002001F042FC2146012001F03EFC18
:101A70003146022001F03AFC2946032001F036FCF1
:101A8000BDE8704001230221014A084601F05EBB17
:101A90003000002070B50E4681B21C46154600206D
:101AA00001F0ECFBB1B2012001F0E8FBA9B2022089
:101AB00001F0E4FBA1B2032001F0E0FBBDE87040BF
:101AC00001230221014A084601F040BB30000020FA
:101AD00010B501F0C0FE0A4A0A4B01F00BFF01F0FD
:101AE0008DFEB0F5804F01D343F6FF700649C0F379
:101AF0000D004870000A0870BDE8104001F0A4B85D
:101B0000083D9B559F7B3C401C000020FEE7704732
:101B100072B6FEE710B501F09EFE094A094B01F0CE
:101B2000E9FE01F06BFE0849020AC8718A71020CD5
:101B30004A71000E0871BDE8104001F085B8000040
:101B400095D626E80B2E11401C00002010B590F809
:101B500021100022022905D00421816380F8202071
:101B6000012010BD01680B6823F00E030B600168B3
:101B70000B6823F001030B6090F84030C46B012127
:101B800001FA03F3636080F8211080F820201046EA
:101B900010BD000010B590F821100024022903D0D8
:101BA0000421816301243DE001680A6822F00E02ED
:101BB0000A6001680A6822F001020A601A4A016894
:101BC000914201D1012121E0174A1432914201D101
:101BD00010211BE0144A2832914201D1891515E0E9
:101BE000114A3C32914201D189140FE00E4A503221
:101BF000914202D14FF4803108E00B4A64329142A5
:101C000002D14FF4801101E04FF08071064A083A8A
:101C10005160012180F82110002180F82010416BD3
:101C200001B18847204610BD080002402DE9F84F59
:101C3000DFF8B8910024A9F1040B23460F2709F11E
:101C4000040AABF1040EC9E00125A5402A40AA42CE
:101C50007DD1674ED1F804C0ACEB0608B44532D054
:101C600014DCBCF1030F3AD009DCBCF1000F2AD020
:101C7000BCF1010F1CD0BCF1020F31D11DE0BCF151
:101C8000110F17D0BCF1120F2AD119E0B8F5881F37
:101C900019D006DCB8F5803F15D0B8F5801F1FD1EC
:101CA00011E0B8F5001F0ED0B8F5041F18D10AE0F6
:101CB000CB6815E0CB681B1D12E0CB6808330FE042
:101CC000CB680C330CE08B682BB1012B4FF0080371
:101CD00003D0456104E0042302E0056100E0002335
:101CE000FF2A01D8064601E000F104064FEA840508
:101CF00001D9A5F12005D6F8008007FA05FC28EAED
:101D00000C0803FA05F548EA0508C6F800804D6896
:101D1000ED0062D5374DAE6946F00106AE61AD69A2
:101D200024F0030605F001050095334D06EB050C84
:101D3000DCF80850A607360F07FA06F825EA08056A
:101D4000DFF8B880404503D14FF0000817E044E0C9
:101D5000DFF8AC80404502D14FF001080FE0DFF81A
:101D6000A480404502D14FF0020808E0DFF89880D7
:101D7000404502D14FF0030801E04FF0040808FA93
:101D800006F848EA0508CCF808804D68D9F80060E4
:101D9000ED024D4601D5164300E096432E604D6896
:101DA000DAF80060AD02554601D5164300E09643CF
:101DB0002E604D68DBF80060AD035D4601D516432B
:101DC00000E096432E604D68DEF80060ED03754636
:101DD00001D5164300E096432E60641C0D682A4628
:101DE000E5407FF431AFBDE8F88F00000804014002
:101DF00000001110001002400000014000080140E6
:101E0000000C014000100140001401400AB10161C2
:101E100070470904FBE70000014880687047000034
:101E200000000020024881680278114481607047F8
:101E300000000020074810B5016841F01001016062
:101E4000032000F075F80F2000F006F800F024F8E9
:101E5000002010BD0020024070B50D4D04464FF427
:101E60007A712878B1FBF0F00A490968B1FBF0F00B
:101E700000F00CFB48B9102C07D200222146501E5E
:101E800000F036F800206C6070BD012070BD0000CD
:101E9000000000200C0000200C4808B5816941F0CA
:101EA00001018161816901F001010091C16941F085
:101EB0008051C161C06900F08050009004484168C1
:101EC00021F0E06141F08071416008BD00100240E6
:101ED00000000140002809DB00F01F0201219140B1
:101EE0004009800000F1E020C0F8001170470000B8
:101EF000F0B40E4B1B680C46C3F30223C3F1070575
:101F0000042D00D90425191D072901D2002300E062
:101F1000DB1E012606FA05F1491E214099409E402C
:101F2000761E16403143F0BC01F03ABA0CED00E0E9
:101F3000064900F0070208684FF6FF03184040EA20
:101F40000220034A10430860704700000CED00E0D7
:101F50000000FA052DE9F0470F46050061D0434E19
:101F6000306800F00700B84209D2306820F007005E
:101F700038433060306800F00700B84251D128681B
:101F80003B4C810712D5400703D5606840F4E06000
:101F900060602878000703D5606840F46050606096
:101FA0006068A96820F0F000084360602878C007E6
:101FB00028D06868012810D02168022810D089072D
:101FC00000292EDA616821F0030101436160FFF707
:101FD00023FF804641F288390DE021688903EFE74D
:101FE0008901EDE7FFF718FFA0EB0801494502D989
:101FF0000320BDE8F0876068696800F00C00B0EB72
:10200000810FEFD1306800F00700B8420BD930687B
:1020100020F0070038433060306800F00700B84215
:1020200001D00120E5E72878400705D56068E96818
:1020300020F4E060084360602878000706D56068F7
:10204000296920F4605040EAC100606000F038F86F
:102050006168084AC1F30311515CC8400649086031
:1020600006480068FFF7F8FE0020C2E700200240A3
:1020700000100240743C00080C0000200400002006
:102080000448054900684968044AC1F30221515CCB
:10209000C84070470C00002000100240843C00083B
:1020A0000448054900684968044AC1F3C221515CEB
:1020B000C84070470C00002000100240843C00081B
:1020C0000E4A51680E4801F00C03042B11D0082B66
:1020D0000FD10C48C1F38343C903C05C0AD55168D2
:1020E000084AC1F34041921E515C054A5043B0FB7F
:1020F000F1F0704704494843704700000010024067
:1021000000127A00643C000800093D0030B585B03B
:102110000020029002200190032003900B4C4FF40A
:1021200080700090A0690D4640F00400A061A06995
:10213000694600F0040004900548FFF777FD6068E9
:1021400020F0E0602843606005B030BD0010024020
:10215000000801402DE9F84F040070D02078C04DF0
:10216000C00749D06868C0F38100012807D06868BB
:10217000C0F38100022809D16868C00306D5286829
:10218000800339D560680028E7D035E06068B0F595
:10219000803F0BD010B1B0F5A02F11D0286820F4EB
:1021A00080302860286820F4802002E0286840F40D
:1021B00080302860606890B1FFF72EFE06460AE086
:1021C000286840F480202860F0E700BFFFF724FE75
:1021D000801B642873D828688003F7D50CE0FFF7CC
:1021E0001BFE064605E000BFFFF716FE801B6428B5
:1021F000F0D828688003F7D420789A4E80074FF0F3
:1022000001094FF0000839D5686810F00C0F07D0AD
:102210006868C0F38100022809D16868C00306D449
:102220002868800714D52069012808D110E02069AA
:10223000B0B1C6F80090FFF7EFFD074605E00AE1F0
:10224000FFF7EAFDC01B0228C4D828688007F7D52D
:102250002868616920F0F80040EAC10028600DE0BC
:10226000C6F80080FFF7D8FD074604E0FFF7D4FD6D
:10227000C01B022823D828688007F7D420780007DD
:102280002CD57948A169D9B1C0F80090FFF7C4FDF9
:10229000074604E0FFF7C0FDC01B02280FD8686A9C
:1022A0008007F7D571484FF4FA510068B0FBF1F0A0
:1022B000009000BF0098411E0091FAD20EE080E02D
:1022C000C0F80080FFF7A8FD074604E0FFF7A4FD73
:1022D000C01B022875D8686A8007F7D420784007A9
:1022E00060D5E8690027C00008D4E86940F0805054
:1022F000E861E869012700F0805000905C480168BF
:10230000C90513D40168834641F480710160FFF769
:1023100083FD824606E000BFFFF77EFDA0EB0A00CA
:1023200064284ED8DBF80000C005F5D5E068012828
:102330000AD008B1052813D0286A20F001002862CD
:10234000286A20F0040002E0286A40F001002862B8
:10235000E06841F2883B98B1FFF75EFD82460BE0F2
:10236000286A40F004002862EEE700BFFFF754FD42
:10237000A0EB0A0159455AD8286A8007F6D50CE027
:10238000FFF74AFD824605E0FFF746FDA0EB0A0194
:1023900059454CD8286A8007F6D41FB1E86920F067
:1023A0008050E861E06988B36968C1F3810102295E
:1023B00044D00228C6F8608004D0FFF72DFD044603
:1023C00038E034E0FFF728FD074604E0FFF724FD7E
:1023D000C01B02282BD828688001F7D4206AB0F5EA
:1023E000803F05D16868A16820F400300843686028
:1023F000D4E908010843696821F47411084368604E
:10240000C6F86090FFF708FD044606E025E000BF2F
:10241000FFF702FD001B022809D828688001F7D5C4
:102420001BE000BFFFF7F8FC001B022802D90320C5
:10243000BDE8F88F28688001F4D40EE00128F7D0B9
:102440006868226A00F48031914204D1616A00F424
:102450007010884201D00120EAE70020E8E7000080
:102460000010024000004242800442420C00002062
:10247000007000404FF0E0210428086903D020F0EC
:1024800004000861704740F00400FAE710B5401EF0
:10249000B0F1807F01D3012010BD4FF0E0246061D6
:1024A0000F21601700F07CFF0020A0610720206151
:1024B000002010BD70477047F8B5016804460868F1
:1024C000CA684B6910F00F0F4FF000055AD003F0A7
:1024D000010602F49077374365D0C10705D0D105D6
:1024E00003D5616C41F001016164410705D5D9074D
:1024F00003D0616C41F002016164810705D5D90701
:1025000003D0616C41F004016164010707D502F05A
:102510002001314303D0616C41F008016164616CBA
:1025200000293BD0800604D5900602D5204600F055
:10253000E2FB20684069616CC0F3801001F0080183
:10254000014320462BD000F0AFFB206840694006D5
:1025500021D52068143050E8001F21F0400140E8E8
:102560000012002AF5D1E06BA8B16D494163E06B20
:10257000FFF710FB002811D0E06B416B01B0BDE804
:10258000F040084783060ED593060CD52046BDE8DB
:10259000F84000F0B0BB2046FFF78DFFF8BDFFF715
:1025A0008AFF6564F8BD266B2023012E7CD1C60608
:1025B0007AD5D60678D508684868009048694FF003
:1025C0000206400640D5E16B086840680004000C34
:1025D000E8D0A28D8242E5D9E085886920282DD0F7
:1025E00020680C3050E8001F21F4807140E8001290
:1025F000002AF5D12168143151E8000F20F00100C4
:1026000041E80002002AF5D12068143050E8001F8C
:1026100021F0400140E80012002AF5D184F8423050
:10262000256320680C3050E8001F21F0100140E8BD
:102630000012002AF5D1E06BFFF788FA6663A08DDF
:10264000E18D401A81B22AE0A08DE18D401A81B25D
:10265000E08D0028A6D00029A4D022680C3252E8D0
:10266000000F20F4907042E80007002FF5D1206899
:10267000143050E8002F22F0010240E80027002F1C
:10268000F5D184F84230256320680C3050E8002FE3
:1026900022F0100240E80023002BF5D166632046AB
:1026A000FFF708FFF8BDFFE705062BD5150629D56E
:1026B00094F841002128F5D1A068B0F5805F01D1E0
:1026C0002069B0B1206A411C21622168007848600D
:1026D000E08C401E0004000CE084E3D12068C16857
:1026E00021F08001C1602068C16841F04001C160F3
:1026F000D8E7206A0088C0F308004860206A801C80
:102700002062E5E74006CDD55006CBD5CA68204605
:1027100022F04002CA6084F8413000F076F8C1E748
:10272000992C000870B5040004D094F841000025ED
:1027300010B106E0012070BD84F84050204600F042
:1027400023F8242084F841002068C16821F4005156
:10275000C160204600F030FB2068016921F49041FF
:1027600001612068416921F02A0141612068C16846
:1027700041F40051C1606564202084F8410084F870
:1027800042006563002070BD30B585B00024009420
:102790000194029403940068184988422CD1184887
:1027A000816941F480418161816901F48041049132
:1027B000816941F0040181618069124D00F00400DB
:1027C00004904FF4007000900220019003200390C9
:1027D00069462846FFF72AFA2815CDE9000469461C
:1027E00028460294FFF722FA002211462520FFF71F
:1027F0007FFB2520FFF76EFB05B030BD00380140A0
:10280000001002400008014070477047FEE70000DA
:1028100010B50C4C002240212046FFF7F7FA0220A9
:1028200000F03CFE012240212046FFF7EFFA042091
:1028300000F034FE20460022BDE810404021FFF7A2
:10284000E5BA0000000C014010B500F0C9F800F036
:10285000ABF80123BDE81040024A0321184600F0FE
:1028600075BC00003400002070B54C4C00224FF4C1
:1028700080612046FFF7CAFA494D0022022128460E
:10288000FFF7C4FA002204212846FFF7BFFA00220E
:1028900008212846FFF7BAFA002201212046FFF757
:1028A000B5FA002280212846FFF7B0FA0122022162
:1028B0002046FFF7ABFA052000F000FE00220221BF
:1028C0002046FFF7A3FA002210212846FFF79EFAC0
:1028D000002000F0BDFE334E0024305D00F0B8FE55
:1028E000641CE4B2042CF8D3012210212C462846A3
:1028F000FFF78CFA0021491CC9B20A29FBD3002238
:10290000102125462046FFF781FA012000F0A0FEA5
:10291000244E0024361D305D00F09AFE641CE4B2A3
:10292000042CF8D3012210212C462846FFF76EFA1A
:102930000021491CC9B20A29FBD3002210212546D7
:102940002046FFF763FA022000F082FE154E0024B5
:102950000836305D00F07CFE641CE4B2042CF8D331
:10296000012210212846FFF751FA0021491CC9B263
:102970000A29FBD3012211462846FFF747FA002116
:10298000491CC9B20A29FBD3002201212846FFF7BE
:102990003DFABDE87040012000F090BD000C014000
:1029A000000801401000002010B50C4C00228021CE
:1029B0002046FFF72BFA012000F070FD0122802154
:1029C0002046FFF723FA1E2000F068FD2046002273
:1029D000BDE810408021FFF719BA0000000C01404B
:1029E00010B5012211030A48FFF710FA094C002222
:1029F00010212046FFF70AFA002240212046FFF767
:102A000005FA20460022BDE810402021FFF7FEB95C
:102A100000080140000C01402DE9F04385B000247E
:102A20002A480094019402940394816941F01001B2
:102A30008161816901F010010491816941F02001F7
:102A40008161816901F020010491816941F00401F3
:102A50008161816901F004010491816941F00801FB
:102A600081618069DFF8689000F0080041F2FF059D
:102A70000490002229464846FFF7C8F9DFF8548041
:102A80004FF2F347002239464046FFF7BFF9009561
:102A9000032601250396CDE9015469464846FFF710
:102AA000C5F800970396CDE9015469464046FFF703
:102AB000BDF8280200900220019003906946484624
:102AC000FFF7B4F805B0BDE8F08300000010024045
:102AD00000080140000C01400C4810B50A49016093
:102AE0004FF4E1314160002181600C22C160C0E9F6
:102AF00004128161C161FFF715FE002803D0BDE813
:102B00001040FFF705B810BD0038014060000020FC
:102B1000FEE700000A4A01200849526808E00B1845
:102B200013F8013C0D2B02D10B5C0A2B04D0401C86
:102B30009042F4D30020704701207047A800002085
:102B40003C000020094881680968096889060CD59D
:102B500007490A68074B41685A54491C4160642977
:102B600003D1002141600121017070473C00002029
:102B700004380140A8000020034988600068C1684B
:102B800041F02001C16070473C00002030B505468F
:102B9000FFF7C0FF002815D00C4800240C4A4068FD
:102BA0000AE0115D295534B12B1913F8013C0D2BA6
:102BB00001D10A2907D0641C8442F2D3204600F0D8
:102BC000D9FB204630BD641CF8E700003C00002023
:102BD000A8000020FEE770477047FFF723B930B523
:102BE0008FB028216846FDF71BFB14210AA8FDF7CA
:102BF00017FB01210804CDE90010002402940225EE
:102C00000491CDE907504FF4E01009906846FFF7B2
:102C1000A1FA08B172B6FEE70F20CDE90A054FF41C
:102C20008060CDE90C4002210AA80E94FFF792F9CA
:102C300008B172B6FEE700224FF0E0611046FFF7E0
:102C400065FA0FB030BD704770B5114D00221021EC
:102C50002846FFF7DBF80E2000F0FAFC0D4E0024AA
:102C6000305D00F0F5FC641CE4B2082CF8D30122BE
:102C700010212846FFF7CAF8012211462846FFF71F
:102C8000C5F82846BDE8704000220121FFF7BEB814
:102C9000000801401C00002010B5406A0021C185D9
:102CA000C184FFF708FC10BD01680C3151E8002F0A
:102CB00022F4907241E80023002BF5D10168143111
:102CC00051E8002F22F0010241E80023002BF5D14A
:102CD000016B012909D101680C3151E8002F22F064
:102CE000100241E80023002BF5D1202180F842108A
:102CF00000210163704708B590F84210222901D0E5
:102D0000022008BD82684FF480539A4201D10169C4
:102D100021B1816A9A421BD04AB10AE00268816AF5
:102D20005268C2F308020A80816A891C08E00269BD
:102D300072B10268526802F07F020A70816A491C0F
:102D40008162C18D491E0904090CC18503D01BE0B5
:102D500002685268F1E70168CA6822F02002CA607E
:102D60000168CA6822F48072CA6001684A6922F068
:102D700001024A61202180F8421000214163026B68
:102D8000012A03D0FFF740FD002008BD0163016860
:102D90000C3151E8002F22F0100241E80023002BF3
:102DA000F5D101680A68D20602D50A68496800911F
:102DB000818DFFF77FFBE7E770B504460068016986
:102DC000E26821F44051114301612169A068084380
:102DD000616908432168CA6841F20C639A4302435F
:102DE000CA6020684169A26921F4407111434161C0
:102DF0001E492068884202D1FFF752F901E0FFF72F
:102E00003FF900EBC00101EB001260686421800013
:102E1000B2FBF0F3B3FBF1F36FF018067343B2FBB0
:102E2000F0F5B2FBF0F605EB8305322303EB051555
:102E3000B5FBF1F5B6FBF1F605F0F00505EB06156F
:102E4000B2FBF0F6B2FBF0F0B0FBF1F06FF018025D
:102E5000504306EB800003EB0010B0FBF1F021685B
:102E600000F00F002844886070BD00000038014069
:102E700010B50448FFF766FEBDE810400248FFF7B2
:102E80001BBB00000038014060000020F0B599B085
:102E90006846FFF77BFE002876D09DF800003928B1
:102EA00072D19DF80100A54C6D46382818D19DF8C7
:102EB0000200332868D19DF80300342864D12246EB
:102EC0009FA1681DFDF78EF9D4E9000100F096FC82
:102ED00001460020FEF73EFD9DF80000392853D141
:102EE0009DF8010039284FD19DF80200352831D1D5
:102EF0009DF80300392847D19DF80400914F40F216
:102F0000FF36302842D031287ED032287DD0332879
:102F10003AD19DF80500662878D0612877D07028CE
:102F200032D1864A86A11032E81DFDF75BF9D4E95B
:102F3000040100F063FC0346002200210846FEF76E
:102F4000A9FD00BF9DF8000039281DD19DF80100A2
:102F5000392819D19DF80200312815D19DF80300B8
:102F6000302811D19DF8040066286FD061280BD15C
:102F7000724A73A10832A81DFDF734F9D4E90201A1
:102F800000F03CFCFEF7A4FD19B0F0BD9DF8050073
:102F9000662823D0612849D07028F5D1674A1032BD
:102FA00067A1E81DFDF71EF9D4E9000100F026FC39
:102FB00001463A463B46FEF74FFDD4E9040100F0D6
:102FC0001DFC00231A461946FEF764FDD4E90201F0
:102FD00000F014FC01463246334655E0574A58A1EA
:102FE000E81DFDF7FFF8D4E9000100F007FC0146F9
:102FF0003A463B46FEF730FDD4E9040100F0FEFB03
:1030000000231A46194603E013E040E06DE07AE041
:10301000FEF740FDD4E9020100F0F0FB0146324624
:103020003346FEF7FBFCFFF7F3FB8BE7434A08321E
:10303000B6E79DF80500662806D0612807D07028FD
:10304000A2D13E4A103204E03C4A02E06AE03B4A28
:1030500008323BA1E81DFDF7C5F8D4E9000100F0F6
:10306000CDFB01463A463B46FEF7F6FCD4E90401A7
:1030700000F0C4FB002301461A461846FEF70AFD7D
:1030800033461A4630461146FEF7C8FC5AE79DF80B
:103090000500662810D061281AD07028D0D1274AA0
:1030A00027A11032E81DFDF79DF8D4E9040100F0D6
:1030B000A5FB0246002340E7204A21A1E81DFDF7B9
:1030C00091F8D4E9000100F099FB0146022017E0D5
:1030D0001A4A1BA10832E81DFDF784F8D4E9020161
:1030E00000F08CFB81B2022019E0144A14A1E81D03
:1030F000FDF778F8D4E9000100F080FB01460320D9
:1031000000F0F4F81EE70D4A0DA10832E81DFDF7A6
:1031100069F8D4E9020100F071FB81B2032000F0EC
:1031200081F80FE7054A06A1A81DFDF75BF8D4E971
:10313000000100F063FBFEF7EDFC25E748000020EE
:10314000256C660080841E00FEE700002DE9F05F1C
:10315000324C924688460026054699463246102152
:103160002046FEF753FE4FF4805B002259462C4860
:10317000FEF74CFE002210212046FEF747FE2806EF
:1031800001D5012200E0002220212046FEF73EFE6C
:10319000012210212046FEF739FE6806761C050E36
:1031A000F6B2082EE6D3002210212046FEF72EFEAE
:1031B0000025274623E000BF1AF8056000240022FE
:1031C00010213846FEF722FE300601D5012200E02C
:1031D000002220213846FEF719FE01221021384630
:1031E000FEF714FE7006641C060EE4B2082CE6D34B
:1031F000002210213846FEF709FE6D1CEDB2454550
:10320000DAD3B9F1010F01D1FFF702FB5946BDE84E
:10321000F05F01220248FEF7F9BD0000000C0140FA
:103220000008014008B5002200928DF8021010221B
:1032300042EA11218DF8011040B101280AD002287C
:1032400016D0032813D101230B4A06E00A4A0123B2
:10325000D21E02E0084A0123921E01210020FFF73E
:1032600075FF01236A4603210620FFF76FFF08BDA3
:10327000014A0123521EF0E72F00002010B504463A
:10328000084600F0E8FA164A164B00F033FB00F04F
:10329000B5FA15494870000A08709CB1012C15D088
:1032A000022C17D0032C19D10023CA1E01210020A3
:1032B000FFF74CFF00230221BDE810400A4A052019
:1032C000FFF744BF084A0023921FEFE7064A002396
:1032D000521FEBE7044A0023121FE7E710BD00006E
:1032E0001CD0D2156CC146403200002038B50446CF
:1032F00000200090084600F0AEFA1B4A1B4B00F07D
:10330000F9FA00F07BFA8DF80300010A8DF802103B
:10331000010C8DF80110000E8DF800006CB1012C2D
:103320000FD0022C1BD0032C18D10123104A1946B0
:103330000020FFF70BFF03230BE00D4A0123D21EF1
:1033400002E00B4A0123921E01210020FFF7FEFE3E
:10335000012304216A460846FFF7F8FE38BD044AF7
:103360000123521EF0E7000095D626E80B2E2140DF
:103370002F00002010B50021074AC0F1640303E0CC
:103380000C18145D5454491C8B42F9D803494A68FF
:10339000101A486010BD0000A80000203C0000206A
:1033A0000907090E002804DB00F1E02080F8001472
:1033B000704700F00F0000F1E02080F8141D704706
:1033C00040F2013200204FF0E04100F0FEBB00006F
:1033D000024A0020110700F0F8BB000001FDFFFFCA
:1033E00010B50446D1E9000100F002F8206010BDDC
:1033F000F8B504460D466A4600F080F800987E3025
:10340000009000281FDC002213462046294600F0C9
:10341000B9F918D0002140F608004FF00000064628
:103420002046294600F068F9044640F6080006EAFE
:1034300000014FF0000034F0004004BF0220FDF70F
:1034400012FC2046F8BD0098FF280DDB0220FDF796
:103450000AFC002213462046294600F049FB8CBF97
:1034600004484FF0FF40F8BD20462946BDE8F8402B
:1034700000F042B9000080FF10B504460A46D4E9C6
:103480000003194600F066F8C4E9000110BD3038A9
:103490000A2801D2012070470020704700EB40004D
:1034A0008000401EFDD2704710B504460420FEF790
:1034B000E1FF0148048010BD380000204FF47A710C
:1034C000484300F001B8000070B54FF0E02400223E
:1034D00065690949A36909884843A1699942FCD0F3
:1034E00002D2A3EB010302E0A5EB010633441A4428
:1034F0000B468242F1D370BD3800002010B514464F
:1035000000222260114A21F000439342A8BF10BD5F
:1035100053EA000208BF10BDB3F5801FA8BF2268A0
:1035200007DA362200F051FB6FF0350221F000433C
:103530002260DFF81CC06FF31E510CEB23531A44BA
:1035400041F0FF5141F00051226010BD0000F07FBA
:1035500002FCFFFF2DE9F04106460C4640F2FF75E4
:10356000174635EA14502BD000221346304600F09F
:1035700009F925D03A463046214600F026FB06469A
:103580000C4635EA145010D000221346304600F0A5
:10359000F9F815D10220FDF766FBFFF719FF0A467F
:1035A000214662F31E01BDE8F0810220FDF75BFBBE
:1035B000FFF706FF0A46214662F31E01BDE8F081CF
:1035C00030462146BDE8F081FEF734FCFFF707FBEB
:1035D000FFF722FAFFF780FA1948FFF7CDFAAA2081
:1035E000FFF762FFFEF778F942F20800FEF78EF966
:1035F000144C00202146FEF7ADF9FFF725F9124AD9
:10360000124813460146FEF727FA00231A461946C8
:103610001846FEF73FFA40F2FF3003461A461146BD
:10362000FEF7FCF9FFF720F92046FEF773FA40F2A7
:103630008920FEF74DFA00BFFFF728FCFCE70000E9
:1036400060000020A086010080841E00C00E1602CB
:103650002DE9F041114F06468025002220213846F1
:10366000FEF7D4FB00242E4201D1002200E001220B
:1036700040213846FEF7CAFB012220213846FEF7DA
:10368000C5FB6D08002220213846FEF7BFFB641CF5
:10369000E4B2082CE7D3BDE8F08100000008014047
:1036A00010B500290AD00878002807D005487844CA
:1036B000FDF70CFD002801D0002010BD0248784421
:1036C00010BD00009A0600009206000010B5002907
:1036D0000AD00878002807D005487844FDF7F6FCA2
:1036E000002801D0002010BD0248784410BD000021
:1036F0008A0600008206000021F00042A2F160521A
:10370000B2F5801F01F0004328BFD2F17F6C0BD9C6
:103710005FEA001C43EAC20242EB507018BF7047D8
:1037200028BF20F001007047B2F5801FBCBF1846CB
:1037300070474FEA410C1CF5001F02D2084600F00A
:103740000DBA70B500F080F900000089FFF7F6BFF0
:103750004FF00040A0F580007047000002494FF094
:10376000000000F000BA00BF0000F87F491058BF09
:10377000C1F140415B1058BFC3F140438B42EFF3AE
:103780000080704751EA030C17D41CF5801F58BF06
:10379000BCF5801F00F10680994218BF704708BF32
:1037A0009042704707D711F5801F58BF13F5801F4F
:1037B00019D499427047894270471CF5801F08D57B
:1037C000BCF5801FF7D58B4218BF704708BF8242F7
:1037D00070474FF4001C1CEB410F38BF1CEB430F2C
:1037E00001D28B42704770B500F02EF99224490047
:1037F0004FF000514FF08053FFF7B8BF4FEA11531D
:10380000A3F58063D3F11E03A8BFD3F1200C08DB1E
:103810004FF0004242EAC12252EA505232FA03F01B
:10382000704709420BD4102BC4BF0020704703F52A
:10383000787CBCF1FF3F05D04FF0FF3070474FF070
:103840000000704770B500F0FFF800BF4992248077
:1038500000207047F0E7B0FA80F310FA03F10AD0C5
:10386000C3F11D0303F580634FEA41504FEA035251
:1038700002EBD12170474FF00000704751EA030C72
:1038800017D41CF5801F58BFBCF5801F00F10680BF
:10389000994218BF704708BF9042704707D711F58B
:1038A000801F58BF13F5801F19D499427047894271
:1038B00070471CF5801F08D5BCF5801FF7D58B42DB
:1038C00018BF704708BF824270474FF4001C1CEBC2
:1038D000410F38BF1CEB430F01D28B42704770B5CC
:1038E00000F0B2F8922449004FF000514FF080539D
:1038F000FFF73CBFDFF848C170B51CEA111E1EBFC0
:103900001CEA13159EEA0C0F95EA0C0F00F06F806D
:1039100081EA030423EA4C134EEAD47E21EA4C11D7
:1039200041F4801143F48013AE44A1FB024CA0FB90
:103930000365AEF17F7E361955EB0C05A1FB034CF8
:103940004CF10003A0FB021C16EB0C06654153F181
:103950000003094218BF46F0010613F4007F0BD1A3
:103960004FEA03314FEA0530340341EA155140EA8A
:1039700016506FF003020AE04FEAC3214FEAC52058
:10398000F40241EA555140EA56506FF0020202EB50
:103990002E4201EB025585EACE710AD05FEA440C53
:1039A00018BF24F0004450F1000041F1000120EA6A
:1039B000D47040F2FE7C624500D270BDA84214BFB4
:1039C0004FF080444FF04044002E08BF0024BEF169
:1039D000806FA8BFA1F1C041BDE8704080F2828035
:1039E0004FF0000001F1C04101F0004170479EEA34
:1039F0000C0F0CEA131518BF95EA0C0F06D04FF008
:103A0000000081EA030E0EF0004170BD00F01CF8CA
:103A10008900013E00F007B800F009B84FEA430CF6
:103A20005FEA5C5C08D081EA030100F05BB84FEA12
:103A3000410C5FEA5C5CF6D14FF000000149704731
:103A40000000FF070000F87F0EF1020E2EF0030EBB
:103A50005EF8046B364205D4012A43EB030515F5E5
:103A6000001F12D8012841EB010C1CF5001F0CD8D7
:103A70000ED14FEAD17C15F5001F0CEB4C0C0CF16C
:103A8000020C08BF4CEBD37C04E04FF0080C01E0C3
:103A90004FEAD37C0CEB4C0526FA05F606F0070638
:103AA000B6F1040C06D20EEB860CBDE870404CF06B
:103AB000010C6047DFE80CF0090B02024FF00041F7
:103AC0004FF00000A1F5002170BD194610460128F5
:103AD00051EB010418BFD4F5001484BF002001F09D
:103AE000004170BD0808A0F500114FEA3101704790
:103AF00053EA010C17D41CF5801F58BFBCF5801F7A
:103B000000F106808B4218BF704708BF82427047A1
:103B100007D713F5801F58BF11F5801F19D48B42AA
:103B200070479B4270471CF5801F08D5BCF5801F6D
:103B3000F7D5994218BF704708BF904270474FF4BD
:103B4000001C1CEB430F38BF1CEB410F01D2994204
:103B500070470FB40CBC03BCFFF7C1BEFF2141EAA4
:103B6000D050C00570470CF00F03092B08BF082088
:103B700000F05F800A2B0BD0082B18BF704708BFDE
:103B80001CF0400F0AD04FF000004FF000017047CA
:103B90001CF0400F18BF4FF0004070471CF0100F92
:103BA00008D020F0704300F07F4242EAD3014FEA90
:103BB0004370704700F0604021F07F4242EA00020B
:103BC00001F07F4040EA727070474FF0FF0C4CF4F8
:103BD000E06C1CEA11531CBF9CEA030C9445C2BF65
:103BE000DA4201EB02517047002B0DD0BCF1000FFF
:103BF0000FD0002A01F00041A4BF41F0E04141F0A4
:103C00007F614FF00000704701F000414FF000006D
:103C1000704750EA01334FF09B0C18BF4CF0806C9A
:103C20007FF49CAD7047FCF723BCFDF723B8FDF78C
:103C3000ADB91CF4801F11D01CF4E02F03D06FEA43
:103C4000CC31490070474FF04050EFF3008222F032
:103C5000704242EA000282F3008870474FF0000091
:103C60007047010202030405060708090A0B0C0D40
:103C70000E0F1010000000000000000001020304FD
:103C800006070809000000000102030402400000CA
:103C9000000000A00000000005400000000000C877
:103CA000000000000C4000000000409C00000000EC
:103CB000194000000020BCBE00000000344000009D
:103CC000BFC91B8E00000004B5400000504BCFD090
:103CD0006607E2CF010000006C4100003E8251AA5D
:103CE000DFEEA73401000000D9420000DCB5A0E2FD
:103CF0003A301F97FFFFFFFFB4450000FD25A0C825
:103D0000E9A3C14FFFFFFFFFFF3F0000000000805D
:103D100000000000FF3F00000000008000000000E5
:103D2000743E000800000020600000002801000828
:103D3000D43E000860000020100700004401000885
:103D4000000000000000F07F1C00000043000000A5
:103D5000F8FFFFFF0C0000000E0000000F00000045
:103D60002E0000001001000043000000F8FFFFFFDC
:103D7000004040404040404040404141414141407E
:103D80004040404040404040404040404040404033
:103D900040050202020202020202020202020202C2
:103DA00002202020202020202020200202020202C7
:103DB000020290909090909010101010101010101F
:103DC000101010101010101010101010020202022B
:103DD000020288888888888808080808080808086F
:103DE000080808080808080808080808020202026B
:103DF0004000000000000000000000000000000083
:103E000000000000000000000000000000000000B2
:103E100000000000000000000000000000000000A2
:103E20000000000000000000000000000000000092
:103E30000000000000000000000000000000000082
:103E40000000000000000000000000000000000072
:103E50000000000000000000000000000000000062
:103E60000000000000000000000000000000000052
:103E70000000000001000000100000000000000031
:103E80000024F4000040000001000000150F413242
:103E90003FFF000025097B420000000000000000F9
:103EA0001020408000010000D00000000000000051
:103EB0000000000000000000000000000000000002
:103EC00076B080410000000000F88F400000000044
:043ED00000000000EE
:04000005080000ED02
:00000001FF
